{
  "_format": "hh-sol-artifact-1",
  "contractName": "NFTMarketPlace",
  "sourceName": "contracts/NFTMarketPlace.sol",
  "abi": [
    {
      "inputs": [],
      "stateMutability": "nonpayable",
      "type": "constructor"
    },
    {
      "anonymous": false,
      "inputs": [
        {
          "indexed": true,
          "internalType": "address",
          "name": "owner",
          "type": "address"
        },
        {
          "indexed": true,
          "internalType": "address",
          "name": "approved",
          "type": "address"
        },
        {
          "indexed": true,
          "internalType": "uint256",
          "name": "tokenId",
          "type": "uint256"
        }
      ],
      "name": "Approval",
      "type": "event"
    },
    {
      "anonymous": false,
      "inputs": [
        {
          "indexed": true,
          "internalType": "address",
          "name": "owner",
          "type": "address"
        },
        {
          "indexed": true,
          "internalType": "address",
          "name": "operator",
          "type": "address"
        },
        {
          "indexed": false,
          "internalType": "bool",
          "name": "approved",
          "type": "bool"
        }
      ],
      "name": "ApprovalForAll",
      "type": "event"
    },
    {
      "anonymous": false,
      "inputs": [
        {
          "indexed": false,
          "internalType": "uint256",
          "name": "_fromTokenId",
          "type": "uint256"
        },
        {
          "indexed": false,
          "internalType": "uint256",
          "name": "_toTokenId",
          "type": "uint256"
        }
      ],
      "name": "BatchMetadataUpdate",
      "type": "event"
    },
    {
      "anonymous": false,
      "inputs": [
        {
          "indexed": false,
          "internalType": "uint256",
          "name": "_tokenId",
          "type": "uint256"
        }
      ],
      "name": "MetadataUpdate",
      "type": "event"
    },
    {
      "anonymous": false,
      "inputs": [
        {
          "indexed": true,
          "internalType": "address",
          "name": "from",
          "type": "address"
        },
        {
          "indexed": true,
          "internalType": "address",
          "name": "to",
          "type": "address"
        },
        {
          "indexed": true,
          "internalType": "uint256",
          "name": "tokenId",
          "type": "uint256"
        }
      ],
      "name": "Transfer",
      "type": "event"
    },
    {
      "inputs": [
        {
          "internalType": "uint256[]",
          "name": "NFTIds",
          "type": "uint256[]"
        }
      ],
      "name": "BuyNFT",
      "outputs": [],
      "stateMutability": "payable",
      "type": "function"
    },
    {
      "inputs": [],
      "name": "GetAllNFTs",
      "outputs": [
        {
          "components": [
            {
              "internalType": "uint256",
              "name": "NFTId",
              "type": "uint256"
            },
            {
              "internalType": "string",
              "name": "NFTUri",
              "type": "string"
            },
            {
              "internalType": "address payable",
              "name": "owner",
              "type": "address"
            },
            {
              "internalType": "address payable",
              "name": "seller",
              "type": "address"
            },
            {
              "internalType": "uint256",
              "name": "price",
              "type": "uint256"
            },
            {
              "internalType": "bool",
              "name": "status",
              "type": "bool"
            },
            {
              "internalType": "string",
              "name": "NFTName",
              "type": "string"
            },
            {
              "internalType": "string",
              "name": "Description",
              "type": "string"
            }
          ],
          "internalType": "struct NFTMarketPlace.NFTProperties[]",
          "name": "",
          "type": "tuple[]"
        }
      ],
      "stateMutability": "view",
      "type": "function"
    },
    {
      "inputs": [
        {
          "internalType": "address",
          "name": "pubkey",
          "type": "address"
        }
      ],
      "name": "GetUserData",
      "outputs": [
        {
          "components": [
            {
              "internalType": "string",
              "name": "FName",
              "type": "string"
            },
            {
              "internalType": "string",
              "name": "LName",
              "type": "string"
            },
            {
              "internalType": "string",
              "name": "profilePic",
              "type": "string"
            },
            {
              "internalType": "address",
              "name": "owner",
              "type": "address"
            },
            {
              "internalType": "uint256",
              "name": "timestamp",
              "type": "uint256"
            },
            {
              "internalType": "string",
              "name": "password",
              "type": "string"
            }
          ],
          "internalType": "struct NFTMarketPlace.User",
          "name": "",
          "type": "tuple"
        }
      ],
      "stateMutability": "view",
      "type": "function"
    },
    {
      "inputs": [
        {
          "internalType": "address",
          "name": "userKey",
          "type": "address"
        },
        {
          "internalType": "string",
          "name": "password",
          "type": "string"
        }
      ],
      "name": "Login",
      "outputs": [
        {
          "internalType": "bool",
          "name": "",
          "type": "bool"
        }
      ],
      "stateMutability": "view",
      "type": "function"
    },
    {
      "inputs": [
        {
          "internalType": "string",
          "name": "NFTURI",
          "type": "string"
        },
        {
          "internalType": "uint256",
          "name": "price",
          "type": "uint256"
        },
        {
          "internalType": "string",
          "name": "name",
          "type": "string"
        },
        {
          "internalType": "string",
          "name": "Description",
          "type": "string"
        }
      ],
      "name": "MintNFT",
      "outputs": [],
      "stateMutability": "payable",
      "type": "function"
    },
    {
      "inputs": [
        {
          "internalType": "uint256",
          "name": "NFTId",
          "type": "uint256"
        },
        {
          "internalType": "uint256",
          "name": "price",
          "type": "uint256"
        },
        {
          "internalType": "string",
          "name": "Description",
          "type": "string"
        },
        {
          "internalType": "string",
          "name": "Name",
          "type": "string"
        }
      ],
      "name": "Resale",
      "outputs": [],
      "stateMutability": "payable",
      "type": "function"
    },
    {
      "inputs": [
        {
          "internalType": "uint256",
          "name": "NFTId",
          "type": "uint256"
        }
      ],
      "name": "SaleNFT",
      "outputs": [],
      "stateMutability": "payable",
      "type": "function"
    },
    {
      "inputs": [
        {
          "internalType": "string",
          "name": "FirstName",
          "type": "string"
        },
        {
          "internalType": "string",
          "name": "LastName",
          "type": "string"
        },
        {
          "internalType": "string",
          "name": "Profile",
          "type": "string"
        },
        {
          "internalType": "address",
          "name": "userKey",
          "type": "address"
        },
        {
          "internalType": "string",
          "name": "password",
          "type": "string"
        }
      ],
      "name": "SignUp",
      "outputs": [],
      "stateMutability": "payable",
      "type": "function"
    },
    {
      "inputs": [
        {
          "internalType": "address",
          "name": "to",
          "type": "address"
        },
        {
          "internalType": "uint256",
          "name": "tokenId",
          "type": "uint256"
        }
      ],
      "name": "approve",
      "outputs": [],
      "stateMutability": "nonpayable",
      "type": "function"
    },
    {
      "inputs": [
        {
          "internalType": "address",
          "name": "owner",
          "type": "address"
        }
      ],
      "name": "balanceOf",
      "outputs": [
        {
          "internalType": "uint256",
          "name": "",
          "type": "uint256"
        }
      ],
      "stateMutability": "view",
      "type": "function"
    },
    {
      "inputs": [
        {
          "internalType": "address",
          "name": "pubkey",
          "type": "address"
        }
      ],
      "name": "checksignup",
      "outputs": [
        {
          "internalType": "bool",
          "name": "",
          "type": "bool"
        }
      ],
      "stateMutability": "view",
      "type": "function"
    },
    {
      "inputs": [
        {
          "internalType": "uint256",
          "name": "tokenId",
          "type": "uint256"
        }
      ],
      "name": "getApproved",
      "outputs": [
        {
          "internalType": "address",
          "name": "",
          "type": "address"
        }
      ],
      "stateMutability": "view",
      "type": "function"
    },
    {
      "inputs": [],
      "name": "getMyNFTs",
      "outputs": [
        {
          "components": [
            {
              "internalType": "uint256",
              "name": "NFTId",
              "type": "uint256"
            },
            {
              "internalType": "string",
              "name": "NFTUri",
              "type": "string"
            },
            {
              "internalType": "address payable",
              "name": "owner",
              "type": "address"
            },
            {
              "internalType": "address payable",
              "name": "seller",
              "type": "address"
            },
            {
              "internalType": "uint256",
              "name": "price",
              "type": "uint256"
            },
            {
              "internalType": "bool",
              "name": "status",
              "type": "bool"
            },
            {
              "internalType": "string",
              "name": "NFTName",
              "type": "string"
            },
            {
              "internalType": "string",
              "name": "Description",
              "type": "string"
            }
          ],
          "internalType": "struct NFTMarketPlace.NFTProperties[]",
          "name": "",
          "type": "tuple[]"
        }
      ],
      "stateMutability": "view",
      "type": "function"
    },
    {
      "inputs": [
        {
          "internalType": "address",
          "name": "owner",
          "type": "address"
        },
        {
          "internalType": "address",
          "name": "operator",
          "type": "address"
        }
      ],
      "name": "isApprovedForAll",
      "outputs": [
        {
          "internalType": "bool",
          "name": "",
          "type": "bool"
        }
      ],
      "stateMutability": "view",
      "type": "function"
    },
    {
      "inputs": [],
      "name": "name",
      "outputs": [
        {
          "internalType": "string",
          "name": "",
          "type": "string"
        }
      ],
      "stateMutability": "view",
      "type": "function"
    },
    {
      "inputs": [
        {
          "internalType": "uint256",
          "name": "tokenId",
          "type": "uint256"
        }
      ],
      "name": "ownerOf",
      "outputs": [
        {
          "internalType": "address",
          "name": "",
          "type": "address"
        }
      ],
      "stateMutability": "view",
      "type": "function"
    },
    {
      "inputs": [
        {
          "internalType": "address",
          "name": "from",
          "type": "address"
        },
        {
          "internalType": "address",
          "name": "to",
          "type": "address"
        },
        {
          "internalType": "uint256",
          "name": "tokenId",
          "type": "uint256"
        }
      ],
      "name": "safeTransferFrom",
      "outputs": [],
      "stateMutability": "nonpayable",
      "type": "function"
    },
    {
      "inputs": [
        {
          "internalType": "address",
          "name": "from",
          "type": "address"
        },
        {
          "internalType": "address",
          "name": "to",
          "type": "address"
        },
        {
          "internalType": "uint256",
          "name": "tokenId",
          "type": "uint256"
        },
        {
          "internalType": "bytes",
          "name": "data",
          "type": "bytes"
        }
      ],
      "name": "safeTransferFrom",
      "outputs": [],
      "stateMutability": "nonpayable",
      "type": "function"
    },
    {
      "inputs": [
        {
          "internalType": "address",
          "name": "operator",
          "type": "address"
        },
        {
          "internalType": "bool",
          "name": "approved",
          "type": "bool"
        }
      ],
      "name": "setApprovalForAll",
      "outputs": [],
      "stateMutability": "nonpayable",
      "type": "function"
    },
    {
      "inputs": [
        {
          "internalType": "bytes4",
          "name": "interfaceId",
          "type": "bytes4"
        }
      ],
      "name": "supportsInterface",
      "outputs": [
        {
          "internalType": "bool",
          "name": "",
          "type": "bool"
        }
      ],
      "stateMutability": "view",
      "type": "function"
    },
    {
      "inputs": [],
      "name": "symbol",
      "outputs": [
        {
          "internalType": "string",
          "name": "",
          "type": "string"
        }
      ],
      "stateMutability": "view",
      "type": "function"
    },
    {
      "inputs": [
        {
          "internalType": "uint256",
          "name": "tokenId",
          "type": "uint256"
        }
      ],
      "name": "tokenURI",
      "outputs": [
        {
          "internalType": "string",
          "name": "",
          "type": "string"
        }
      ],
      "stateMutability": "view",
      "type": "function"
    },
    {
      "inputs": [
        {
          "internalType": "address",
          "name": "from",
          "type": "address"
        },
        {
          "internalType": "address",
          "name": "to",
          "type": "address"
        },
        {
          "internalType": "uint256",
          "name": "tokenId",
          "type": "uint256"
        }
      ],
      "name": "transferFrom",
      "outputs": [],
      "stateMutability": "nonpayable",
      "type": "function"
    }
  ],
  "bytecode": "0x6080604052662386f26fc100006009553480156200001c57600080fd5b506040518060400160405280600e81526020017f4e46544d61726b6574506c6163650000000000000000000000000000000000008152506040518060400160405280600481526020017f4e46544d000000000000000000000000000000000000000000000000000000008152508160009080519060200190620000a192919062000104565b508060019080519060200190620000ba92919062000104565b50505033600760006101000a81548173ffffffffffffffffffffffffffffffffffffffff021916908373ffffffffffffffffffffffffffffffffffffffff16021790555062000219565b8280546200011290620001e3565b90600052602060002090601f01602090048101928262000136576000855562000182565b82601f106200015157805160ff191683800117855562000182565b8280016001018555821562000182579182015b828111156200018157825182559160200191906001019062000164565b5b50905062000191919062000195565b5090565b5b80821115620001b057600081600090555060010162000196565b5090565b7f4e487b7100000000000000000000000000000000000000000000000000000000600052602260045260246000fd5b60006002820490506001821680620001fc57607f821691505b60208210811415620002135762000212620001b4565b5b50919050565b614b9380620002296000396000f3fe6080604052600436106101405760003560e01c806379761e1e116100b6578063b88d4fde1161006f578063b88d4fde14610457578063c87b56dd14610480578063e985e9c5146104bd578063ecdef347146104fa578063f805964214610537578063fad545e51461055357610140565b806379761e1e146103635780637c26b48e1461037f57806395d89b41146103aa578063a22cb465146103d5578063a4b4e42b146103fe578063acc663f21461043b57610140565b80632753fe7d116101085780632753fe7d1461023c57806342842e0e14610279578063629cb2e4146102a25780636352211e146102cd5780636cf390ab1461030a57806370a082311461032657610140565b806301ffc9a71461014557806306fdde0314610182578063081812fc146101ad578063095ea7b3146101ea57806323b872dd14610213575b600080fd5b34801561015157600080fd5b5061016c60048036038101906101679190613337565b61056f565b604051610179919061337f565b60405180910390f35b34801561018e57600080fd5b506101976105d0565b6040516101a49190613433565b60405180910390f35b3480156101b957600080fd5b506101d460048036038101906101cf919061348b565b610662565b6040516101e191906134f9565b60405180910390f35b3480156101f657600080fd5b50610211600480360381019061020c9190613540565b6106a8565b005b34801561021f57600080fd5b5061023a60048036038101906102359190613580565b6107c0565b005b34801561024857600080fd5b50610263600480360381019061025e91906135d3565b610820565b6040516102709190613706565b60405180910390f35b34801561028557600080fd5b506102a0600480360381019061029b9190613580565b610b21565b005b3480156102ae57600080fd5b506102b7610b41565b6040516102c491906138d8565b60405180910390f35b3480156102d957600080fd5b506102f460048036038101906102ef919061348b565b6110d9565b60405161030191906134f9565b60405180910390f35b610324600480360381019061031f9190613a42565b611160565b005b34801561033257600080fd5b5061034d600480360381019061034891906135d3565b61120f565b60405161035a9190613a9a565b60405180910390f35b61037d6004803603810190610378919061348b565b6112c7565b005b34801561038b57600080fd5b50610394611457565b6040516103a191906138d8565b60405180910390f35b3480156103b657600080fd5b506103bf6117dd565b6040516103cc9190613433565b60405180910390f35b3480156103e157600080fd5b506103fc60048036038101906103f79190613ae1565b61186f565b005b34801561040a57600080fd5b5061042560048036038101906104209190613bd6565b611885565b604051610432919061337f565b60405180910390f35b61045560048036038101906104509190613c32565b6119a8565b005b34801561046357600080fd5b5061047e60048036038101906104799190613d72565b611b03565b005b34801561048c57600080fd5b506104a760048036038101906104a2919061348b565b611b65565b6040516104b49190613433565b60405180910390f35b3480156104c957600080fd5b506104e460048036038101906104df9190613df5565b611c78565b6040516104f1919061337f565b60405180910390f35b34801561050657600080fd5b50610521600480360381019061051c91906135d3565b611d0c565b60405161052e919061337f565b60405180910390f35b610551600480360381019061054c9190613e35565b611d6a565b005b61056d60048036038101906105689190613f20565b611f04565b005b6000634906490660e01b7bffffffffffffffffffffffffffffffffffffffffffffffffffffffff1916827bffffffffffffffffffffffffffffffffffffffffffffffffffffffff191614806105c957506105c882612165565b5b9050919050565b6060600080546105df9061400a565b80601f016020809104026020016040519081016040528092919081815260200182805461060b9061400a565b80156106585780601f1061062d57610100808354040283529160200191610658565b820191906000526020600020905b81548152906001019060200180831161063b57829003601f168201915b5050505050905090565b600061066d82612247565b6004600083815260200190815260200160002060009054906101000a900473ffffffffffffffffffffffffffffffffffffffff169050919050565b60006106b3826110d9565b90508073ffffffffffffffffffffffffffffffffffffffff168373ffffffffffffffffffffffffffffffffffffffff161415610724576040517f08c379a000000000000000000000000000000000000000000000000000000000815260040161071b906140ae565b60405180910390fd5b8073ffffffffffffffffffffffffffffffffffffffff16610743612292565b73ffffffffffffffffffffffffffffffffffffffff16148061077257506107718161076c612292565b611c78565b5b6107b1576040517f08c379a00000000000000000000000000000000000000000000000000000000081526004016107a890614140565b60405180910390fd5b6107bb838361229a565b505050565b6107d16107cb612292565b82612353565b610810576040517f08c379a0000000000000000000000000000000000000000000000000000000008152600401610807906141d2565b60405180910390fd5b61081b8383836123e8565b505050565b610828613169565b600a60008373ffffffffffffffffffffffffffffffffffffffff1673ffffffffffffffffffffffffffffffffffffffff1681526020019081526020016000206040518060c00160405290816000820180546108829061400a565b80601f01602080910402602001604051908101604052809291908181526020018280546108ae9061400a565b80156108fb5780601f106108d0576101008083540402835291602001916108fb565b820191906000526020600020905b8154815290600101906020018083116108de57829003601f168201915b505050505081526020016001820180546109149061400a565b80601f01602080910402602001604051908101604052809291908181526020018280546109409061400a565b801561098d5780601f106109625761010080835404028352916020019161098d565b820191906000526020600020905b81548152906001019060200180831161097057829003601f168201915b505050505081526020016002820180546109a69061400a565b80601f01602080910402602001604051908101604052809291908181526020018280546109d29061400a565b8015610a1f5780601f106109f457610100808354040283529160200191610a1f565b820191906000526020600020905b815481529060010190602001808311610a0257829003601f168201915b505050505081526020016003820160009054906101000a900473ffffffffffffffffffffffffffffffffffffffff1673ffffffffffffffffffffffffffffffffffffffff1673ffffffffffffffffffffffffffffffffffffffff16815260200160048201548152602001600582018054610a989061400a565b80601f0160208091040260200160405190810160405280929190818152602001828054610ac49061400a565b8015610b115780601f10610ae657610100808354040283529160200191610b11565b820191906000526020600020905b815481529060010190602001808311610af457829003601f168201915b5050505050815250509050919050565b610b3c83838360405180602001604052806000815250611b03565b505050565b60606000610b4f60086126e2565b90506000806000905060005b83811015610c73573373ffffffffffffffffffffffffffffffffffffffff16600b6000600184610b8b9190614221565b815260200190815260200160002060020160009054906101000a900473ffffffffffffffffffffffffffffffffffffffff1673ffffffffffffffffffffffffffffffffffffffff161480610c4c57503373ffffffffffffffffffffffffffffffffffffffff16600b6000600184610c029190614221565b815260200190815260200160002060030160009054906101000a900473ffffffffffffffffffffffffffffffffffffffff1673ffffffffffffffffffffffffffffffffffffffff16145b15610c60578280610c5c90614277565b9350505b8080610c6b90614277565b915050610b5b565b5060008267ffffffffffffffff811115610c9057610c8f6138ff565b5b604051908082528060200260200182016040528015610cc957816020015b610cb66131b5565b815260200190600190039081610cae5790505b50905060005b838110156110ce573373ffffffffffffffffffffffffffffffffffffffff16600b6000600184610cff9190614221565b815260200190815260200160002060020160009054906101000a900473ffffffffffffffffffffffffffffffffffffffff1673ffffffffffffffffffffffffffffffffffffffff161480610dc057503373ffffffffffffffffffffffffffffffffffffffff16600b6000600184610d769190614221565b815260200190815260200160002060030160009054906101000a900473ffffffffffffffffffffffffffffffffffffffff1673ffffffffffffffffffffffffffffffffffffffff16145b156110bb576000600182610dd49190614221565b90506000600b60008381526020019081526020016000209050806040518061010001604052908160008201548152602001600182018054610e149061400a565b80601f0160208091040260200160405190810160405280929190818152602001828054610e409061400a565b8015610e8d5780601f10610e6257610100808354040283529160200191610e8d565b820191906000526020600020905b815481529060010190602001808311610e7057829003601f168201915b505050505081526020016002820160009054906101000a900473ffffffffffffffffffffffffffffffffffffffff1673ffffffffffffffffffffffffffffffffffffffff1673ffffffffffffffffffffffffffffffffffffffff1681526020016003820160009054906101000a900473ffffffffffffffffffffffffffffffffffffffff1673ffffffffffffffffffffffffffffffffffffffff1673ffffffffffffffffffffffffffffffffffffffff168152602001600482015481526020016005820160009054906101000a900460ff16151515158152602001600682018054610f779061400a565b80601f0160208091040260200160405190810160405280929190818152602001828054610fa39061400a565b8015610ff05780601f10610fc557610100808354040283529160200191610ff0565b820191906000526020600020905b815481529060010190602001808311610fd357829003601f168201915b505050505081526020016007820180546110099061400a565b80601f01602080910402602001604051908101604052809291908181526020018280546110359061400a565b80156110825780601f1061105757610100808354040283529160200191611082565b820191906000526020600020905b81548152906001019060200180831161106557829003601f168201915b50505050508152505084868151811061109e5761109d6142c0565b5b60200260200101819052506001856110b69190614221565b945050505b80806110c690614277565b915050610ccf565b508094505050505090565b6000806110e5836126f0565b9050600073ffffffffffffffffffffffffffffffffffffffff168173ffffffffffffffffffffffffffffffffffffffff161415611157576040517f08c379a000000000000000000000000000000000000000000000000000000000815260040161114e9061433b565b60405180910390fd5b80915050919050565b60005b81518110156111a25761118f828281518110611182576111816142c0565b5b60200260200101516112c7565b808061119a90614277565b915050611163565b50600760009054906101000a900473ffffffffffffffffffffffffffffffffffffffff1673ffffffffffffffffffffffffffffffffffffffff166108fc349081150290604051600060405180830381858888f1935050505015801561120b573d6000803e3d6000fd5b5050565b60008073ffffffffffffffffffffffffffffffffffffffff168273ffffffffffffffffffffffffffffffffffffffff161415611280576040517f08c379a0000000000000000000000000000000000000000000000000000000008152600401611277906143cd565b60405180910390fd5b600360008373ffffffffffffffffffffffffffffffffffffffff1673ffffffffffffffffffffffffffffffffffffffff168152602001908152602001600020549050919050565b6000600b60008381526020019081526020016000206004015490506000600b600084815260200190815260200160002060030160009054906101000a900473ffffffffffffffffffffffffffffffffffffffff1690506000600b600085815260200190815260200160002060050160006101000a81548160ff02191690831515021790555033600b600085815260200190815260200160002060030160006101000a81548173ffffffffffffffffffffffffffffffffffffffff021916908373ffffffffffffffffffffffffffffffffffffffff16021790555033600b600085815260200190815260200160002060020160006101000a81548173ffffffffffffffffffffffffffffffffffffffff021916908373ffffffffffffffffffffffffffffffffffffffff1602179055506114013033856123e8565b61140b30846106a8565b8073ffffffffffffffffffffffffffffffffffffffff166108fc839081150290604051600060405180830381858888f19350505050158015611451573d6000803e3d6000fd5b50505050565b6060600061146560086126e2565b905060008167ffffffffffffffff811115611483576114826138ff565b5b6040519080825280602002602001820160405280156114bc57816020015b6114a96131b5565b8152602001906001900390816114a15790505b5090506000805b838110156117d35760006001826114da9190614221565b90506000600b6000838152602001908152602001600020905080604051806101000160405290816000820154815260200160018201805461151a9061400a565b80601f01602080910402602001604051908101604052809291908181526020018280546115469061400a565b80156115935780601f1061156857610100808354040283529160200191611593565b820191906000526020600020905b81548152906001019060200180831161157657829003601f168201915b505050505081526020016002820160009054906101000a900473ffffffffffffffffffffffffffffffffffffffff1673ffffffffffffffffffffffffffffffffffffffff1673ffffffffffffffffffffffffffffffffffffffff1681526020016003820160009054906101000a900473ffffffffffffffffffffffffffffffffffffffff1673ffffffffffffffffffffffffffffffffffffffff1673ffffffffffffffffffffffffffffffffffffffff168152602001600482015481526020016005820160009054906101000a900460ff1615151515815260200160068201805461167d9061400a565b80601f01602080910402602001604051908101604052809291908181526020018280546116a99061400a565b80156116f65780601f106116cb576101008083540402835291602001916116f6565b820191906000526020600020905b8154815290600101906020018083116116d957829003601f168201915b5050505050815260200160078201805461170f9061400a565b80601f016020809104026020016040519081016040528092919081815260200182805461173b9061400a565b80156117885780601f1061175d57610100808354040283529160200191611788565b820191906000526020600020905b81548152906001019060200180831161176b57829003601f168201915b5050505050815250508585815181106117a4576117a36142c0565b5b60200260200101819052506001846117bc9190614221565b9350505080806117cb90614277565b9150506114c3565b5081935050505090565b6060600180546117ec9061400a565b80601f01602080910402602001604051908101604052809291908181526020018280546118189061400a565b80156118655780601f1061183a57610100808354040283529160200191611865565b820191906000526020600020905b81548152906001019060200180831161184857829003601f168201915b5050505050905090565b61188161187a612292565b838361272d565b5050565b600061189083611d0c565b6118cf576040517f08c379a00000000000000000000000000000000000000000000000000000000081526004016118c690614439565b60405180910390fd5b816040516020016118e09190614495565b60405160208183030381529060405280519060200120600a60008573ffffffffffffffffffffffffffffffffffffffff1673ffffffffffffffffffffffffffffffffffffffff1681526020019081526020016000206005016040516020016119489190614540565b604051602081830303815290604052805190602001201461199e576040517f08c379a0000000000000000000000000000000000000000000000000000000008152600401611995906145a3565b60405180910390fd5b6001905092915050565b80600b600086815260200190815260200160002060060190805190602001906119d2929190613228565b5081600b600086815260200190815260200160002060070190805190602001906119fd929190613228565b506001600b600086815260200190815260200160002060050160006101000a81548160ff02191690831515021790555030600b600086815260200190815260200160002060020160006101000a81548173ffffffffffffffffffffffffffffffffffffffff021916908373ffffffffffffffffffffffffffffffffffffffff16021790555033600b600086815260200190815260200160002060030160006101000a81548173ffffffffffffffffffffffffffffffffffffffff021916908373ffffffffffffffffffffffffffffffffffffffff16021790555082600b600086815260200190815260200160002060040181905550611afd3330866123e8565b50505050565b611b14611b0e612292565b83612353565b611b53576040517f08c379a0000000000000000000000000000000000000000000000000000000008152600401611b4a906141d2565b60405180910390fd5b611b5f8484848461289a565b50505050565b6060611b7082612247565b6000600660008481526020019081526020016000208054611b909061400a565b80601f0160208091040260200160405190810160405280929190818152602001828054611bbc9061400a565b8015611c095780601f10611bde57610100808354040283529160200191611c09565b820191906000526020600020905b815481529060010190602001808311611bec57829003601f168201915b505050505090506000611c1a6128f6565b9050600081511415611c30578192505050611c73565b600082511115611c65578082604051602001611c4d9291906145c3565b60405160208183030381529060405292505050611c73565b611c6e8461290d565b925050505b919050565b6000600560008473ffffffffffffffffffffffffffffffffffffffff1673ffffffffffffffffffffffffffffffffffffffff16815260200190815260200160002060008373ffffffffffffffffffffffffffffffffffffffff1673ffffffffffffffffffffffffffffffffffffffff16815260200190815260200160002060009054906101000a900460ff16905092915050565b600080600a60008473ffffffffffffffffffffffffffffffffffffffff1673ffffffffffffffffffffffffffffffffffffffff1681526020019081526020016000206004015414611d605760019050611d65565b600090505b919050565b611d7382611d0c565b15611db3576040517f08c379a0000000000000000000000000000000000000000000000000000000008152600401611daa90614633565b60405180910390fd5b6040518060c001604052808681526020018581526020018481526020018373ffffffffffffffffffffffffffffffffffffffff16815260200142815260200182815250600a60008473ffffffffffffffffffffffffffffffffffffffff1673ffffffffffffffffffffffffffffffffffffffff1681526020019081526020016000206000820151816000019080519060200190611e51929190613228565b506020820151816001019080519060200190611e6e929190613228565b506040820151816002019080519060200190611e8b929190613228565b5060608201518160030160006101000a81548173ffffffffffffffffffffffffffffffffffffffff021916908373ffffffffffffffffffffffffffffffffffffffff1602179055506080820151816004015560a0820151816005019080519060200190611ef9929190613228565b509050505050505050565b611f0d33611d0c565b611f4c576040517f08c379a0000000000000000000000000000000000000000000000000000000008152600401611f4390614439565b60405180910390fd5b60008311611f8f576040517f08c379a0000000000000000000000000000000000000000000000000000000008152600401611f869061469f565b60405180910390fd5b611f996008612975565b6000611fa560086126e2565b9050611fb1338261298b565b611fbb81866129a9565b6040518061010001604052808281526020018681526020013073ffffffffffffffffffffffffffffffffffffffff1681526020013373ffffffffffffffffffffffffffffffffffffffff16815260200185815260200160011515815260200184815260200183815250600b600083815260200190815260200160002060008201518160000155602082015181600101908051906020019061205d929190613228565b5060408201518160020160006101000a81548173ffffffffffffffffffffffffffffffffffffffff021916908373ffffffffffffffffffffffffffffffffffffffff16021790555060608201518160030160006101000a81548173ffffffffffffffffffffffffffffffffffffffff021916908373ffffffffffffffffffffffffffffffffffffffff1602179055506080820151816004015560a08201518160050160006101000a81548160ff02191690831515021790555060c0820151816006019080519060200190612132929190613228565b5060e082015181600701908051906020019061214f929190613228565b5090505061215e3330836123e8565b5050505050565b60007f80ac58cd000000000000000000000000000000000000000000000000000000007bffffffffffffffffffffffffffffffffffffffffffffffffffffffff1916827bffffffffffffffffffffffffffffffffffffffffffffffffffffffff1916148061223057507f5b5e139f000000000000000000000000000000000000000000000000000000007bffffffffffffffffffffffffffffffffffffffffffffffffffffffff1916827bffffffffffffffffffffffffffffffffffffffffffffffffffffffff1916145b80612240575061223f82612a54565b5b9050919050565b61225081612abe565b61228f576040517f08c379a00000000000000000000000000000000000000000000000000000000081526004016122869061433b565b60405180910390fd5b50565b600033905090565b816004600083815260200190815260200160002060006101000a81548173ffffffffffffffffffffffffffffffffffffffff021916908373ffffffffffffffffffffffffffffffffffffffff160217905550808273ffffffffffffffffffffffffffffffffffffffff1661230d836110d9565b73ffffffffffffffffffffffffffffffffffffffff167f8c5be1e5ebec7d5bd14f71427d1e84f3dd0314c0f7b2291e5b200ac8c7c3b92560405160405180910390a45050565b60008061235f836110d9565b90508073ffffffffffffffffffffffffffffffffffffffff168473ffffffffffffffffffffffffffffffffffffffff1614806123a157506123a08185611c78565b5b806123df57508373ffffffffffffffffffffffffffffffffffffffff166123c784610662565b73ffffffffffffffffffffffffffffffffffffffff16145b91505092915050565b8273ffffffffffffffffffffffffffffffffffffffff16612408826110d9565b73ffffffffffffffffffffffffffffffffffffffff161461245e576040517f08c379a000000000000000000000000000000000000000000000000000000000815260040161245590614731565b60405180910390fd5b600073ffffffffffffffffffffffffffffffffffffffff168273ffffffffffffffffffffffffffffffffffffffff1614156124ce576040517f08c379a00000000000000000000000000000000000000000000000000000000081526004016124c5906147c3565b60405180910390fd5b6124db8383836001612aff565b8273ffffffffffffffffffffffffffffffffffffffff166124fb826110d9565b73ffffffffffffffffffffffffffffffffffffffff1614612551576040517f08c379a000000000000000000000000000000000000000000000000000000000815260040161254890614731565b60405180910390fd5b6004600082815260200190815260200160002060006101000a81549073ffffffffffffffffffffffffffffffffffffffff02191690556001600360008573ffffffffffffffffffffffffffffffffffffffff1673ffffffffffffffffffffffffffffffffffffffff168152602001908152602001600020600082825403925050819055506001600360008473ffffffffffffffffffffffffffffffffffffffff1673ffffffffffffffffffffffffffffffffffffffff16815260200190815260200160002060008282540192505081905550816002600083815260200190815260200160002060006101000a81548173ffffffffffffffffffffffffffffffffffffffff021916908373ffffffffffffffffffffffffffffffffffffffff160217905550808273ffffffffffffffffffffffffffffffffffffffff168473ffffffffffffffffffffffffffffffffffffffff167fddf252ad1be2c89b69c2b068fc378daa952ba7f163c4a11628f55a4df523b3ef60405160405180910390a46126dd8383836001612b05565b505050565b600081600001549050919050565b60006002600083815260200190815260200160002060009054906101000a900473ffffffffffffffffffffffffffffffffffffffff169050919050565b8173ffffffffffffffffffffffffffffffffffffffff168373ffffffffffffffffffffffffffffffffffffffff16141561279c576040517f08c379a00000000000000000000000000000000000000000000000000000000081526004016127939061482f565b60405180910390fd5b80600560008573ffffffffffffffffffffffffffffffffffffffff1673ffffffffffffffffffffffffffffffffffffffff16815260200190815260200160002060008473ffffffffffffffffffffffffffffffffffffffff1673ffffffffffffffffffffffffffffffffffffffff16815260200190815260200160002060006101000a81548160ff0219169083151502179055508173ffffffffffffffffffffffffffffffffffffffff168373ffffffffffffffffffffffffffffffffffffffff167f17307eab39ab6107e8899845ad3d59bd9653f200f220920489ca2b5937696c318360405161288d919061337f565b60405180910390a3505050565b6128a58484846123e8565b6128b184848484612b0b565b6128f0576040517f08c379a00000000000000000000000000000000000000000000000000000000081526004016128e7906148c1565b60405180910390fd5b50505050565b606060405180602001604052806000815250905090565b606061291882612247565b60006129226128f6565b90506000815111612942576040518060200160405280600081525061296d565b8061294c84612ca2565b60405160200161295d9291906145c3565b6040516020818303038152906040525b915050919050565b6001816000016000828254019250508190555050565b6129a5828260405180602001604052806000815250612d7a565b5050565b6129b282612abe565b6129f1576040517f08c379a00000000000000000000000000000000000000000000000000000000081526004016129e890614953565b60405180910390fd5b80600660008481526020019081526020016000209080519060200190612a18929190613228565b507ff8e1a15aba9398e019f0b49df1a4fde98ee17ae345cb5f6b5e2c27f5033e8ce782604051612a489190613a9a565b60405180910390a15050565b60007f01ffc9a7000000000000000000000000000000000000000000000000000000007bffffffffffffffffffffffffffffffffffffffffffffffffffffffff1916827bffffffffffffffffffffffffffffffffffffffffffffffffffffffff1916149050919050565b60008073ffffffffffffffffffffffffffffffffffffffff16612ae0836126f0565b73ffffffffffffffffffffffffffffffffffffffff1614159050919050565b50505050565b50505050565b6000612b2c8473ffffffffffffffffffffffffffffffffffffffff16612dd5565b15612c95578373ffffffffffffffffffffffffffffffffffffffff1663150b7a02612b55612292565b8786866040518563ffffffff1660e01b8152600401612b7794939291906149c8565b602060405180830381600087803b158015612b9157600080fd5b505af1925050508015612bc257506040513d601f19601f82011682018060405250810190612bbf9190614a29565b60015b612c45573d8060008114612bf2576040519150601f19603f3d011682016040523d82523d6000602084013e612bf7565b606091505b50600081511415612c3d576040517f08c379a0000000000000000000000000000000000000000000000000000000008152600401612c34906148c1565b60405180910390fd5b805181602001fd5b63150b7a0260e01b7bffffffffffffffffffffffffffffffffffffffffffffffffffffffff1916817bffffffffffffffffffffffffffffffffffffffffffffffffffffffff191614915050612c9a565b600190505b949350505050565b606060006001612cb184612df8565b01905060008167ffffffffffffffff811115612cd057612ccf6138ff565b5b6040519080825280601f01601f191660200182016040528015612d025781602001600182028036833780820191505090505b509050600082602001820190505b600115612d6f578080600190039150507f3031323334353637383961626364656600000000000000000000000000000000600a86061a8153600a8581612d5957612d58614a56565b5b0494506000851415612d6a57612d6f565b612d10565b819350505050919050565b612d848383612f4b565b612d916000848484612b0b565b612dd0576040517f08c379a0000000000000000000000000000000000000000000000000000000008152600401612dc7906148c1565b60405180910390fd5b505050565b6000808273ffffffffffffffffffffffffffffffffffffffff163b119050919050565b600080600090507a184f03e93ff9f4daa797ed6e38ed64bf6a1f0100000000000000008310612e56577a184f03e93ff9f4daa797ed6e38ed64bf6a1f0100000000000000008381612e4c57612e4b614a56565b5b0492506040810190505b6d04ee2d6d415b85acef81000000008310612e93576d04ee2d6d415b85acef81000000008381612e8957612e88614a56565b5b0492506020810190505b662386f26fc100008310612ec257662386f26fc100008381612eb857612eb7614a56565b5b0492506010810190505b6305f5e1008310612eeb576305f5e1008381612ee157612ee0614a56565b5b0492506008810190505b6127108310612f10576127108381612f0657612f05614a56565b5b0492506004810190505b60648310612f335760648381612f2957612f28614a56565b5b0492506002810190505b600a8310612f42576001810190505b80915050919050565b600073ffffffffffffffffffffffffffffffffffffffff168273ffffffffffffffffffffffffffffffffffffffff161415612fbb576040517f08c379a0000000000000000000000000000000000000000000000000000000008152600401612fb290614ad1565b60405180910390fd5b612fc481612abe565b15613004576040517f08c379a0000000000000000000000000000000000000000000000000000000008152600401612ffb90614b3d565b60405180910390fd5b613012600083836001612aff565b61301b81612abe565b1561305b576040517f08c379a000000000000000000000000000000000000000000000000000000000815260040161305290614b3d565b60405180910390fd5b6001600360008473ffffffffffffffffffffffffffffffffffffffff1673ffffffffffffffffffffffffffffffffffffffff16815260200190815260200160002060008282540192505081905550816002600083815260200190815260200160002060006101000a81548173ffffffffffffffffffffffffffffffffffffffff021916908373ffffffffffffffffffffffffffffffffffffffff160217905550808273ffffffffffffffffffffffffffffffffffffffff16600073ffffffffffffffffffffffffffffffffffffffff167fddf252ad1be2c89b69c2b068fc378daa952ba7f163c4a11628f55a4df523b3ef60405160405180910390a4613165600083836001612b05565b5050565b6040518060c00160405280606081526020016060815260200160608152602001600073ffffffffffffffffffffffffffffffffffffffff16815260200160008152602001606081525090565b6040518061010001604052806000815260200160608152602001600073ffffffffffffffffffffffffffffffffffffffff168152602001600073ffffffffffffffffffffffffffffffffffffffff1681526020016000815260200160001515815260200160608152602001606081525090565b8280546132349061400a565b90600052602060002090601f016020900481019282613256576000855561329d565b82601f1061326f57805160ff191683800117855561329d565b8280016001018555821561329d579182015b8281111561329c578251825591602001919060010190613281565b5b5090506132aa91906132ae565b5090565b5b808211156132c75760008160009055506001016132af565b5090565b6000604051905090565b600080fd5b600080fd5b60007fffffffff0000000000000000000000000000000000000000000000000000000082169050919050565b613314816132df565b811461331f57600080fd5b50565b6000813590506133318161330b565b92915050565b60006020828403121561334d5761334c6132d5565b5b600061335b84828501613322565b91505092915050565b60008115159050919050565b61337981613364565b82525050565b60006020820190506133946000830184613370565b92915050565b600081519050919050565b600082825260208201905092915050565b60005b838110156133d45780820151818401526020810190506133b9565b838111156133e3576000848401525b50505050565b6000601f19601f8301169050919050565b60006134058261339a565b61340f81856133a5565b935061341f8185602086016133b6565b613428816133e9565b840191505092915050565b6000602082019050818103600083015261344d81846133fa565b905092915050565b6000819050919050565b61346881613455565b811461347357600080fd5b50565b6000813590506134858161345f565b92915050565b6000602082840312156134a1576134a06132d5565b5b60006134af84828501613476565b91505092915050565b600073ffffffffffffffffffffffffffffffffffffffff82169050919050565b60006134e3826134b8565b9050919050565b6134f3816134d8565b82525050565b600060208201905061350e60008301846134ea565b92915050565b61351d816134d8565b811461352857600080fd5b50565b60008135905061353a81613514565b92915050565b60008060408385031215613557576135566132d5565b5b60006135658582860161352b565b925050602061357685828601613476565b9150509250929050565b600080600060608486031215613599576135986132d5565b5b60006135a78682870161352b565b93505060206135b88682870161352b565b92505060406135c986828701613476565b9150509250925092565b6000602082840312156135e9576135e86132d5565b5b60006135f78482850161352b565b91505092915050565b600082825260208201905092915050565b600061361c8261339a565b6136268185613600565b93506136368185602086016133b6565b61363f816133e9565b840191505092915050565b613653816134d8565b82525050565b61366281613455565b82525050565b600060c08301600083015184820360008601526136858282613611565b9150506020830151848203602086015261369f8282613611565b915050604083015184820360408601526136b98282613611565b91505060608301516136ce606086018261364a565b5060808301516136e16080860182613659565b5060a083015184820360a08601526136f98282613611565b9150508091505092915050565b600060208201905081810360008301526137208184613668565b905092915050565b600081519050919050565b600082825260208201905092915050565b6000819050602082019050919050565b600061375f826134b8565b9050919050565b61376f81613754565b82525050565b61377e81613364565b82525050565b60006101008301600083015161379d6000860182613659565b50602083015184820360208601526137b58282613611565b91505060408301516137ca6040860182613766565b5060608301516137dd6060860182613766565b5060808301516137f06080860182613659565b5060a083015161380360a0860182613775565b5060c083015184820360c086015261381b8282613611565b91505060e083015184820360e08601526138358282613611565b9150508091505092915050565b600061384e8383613784565b905092915050565b6000602082019050919050565b600061386e82613728565b6138788185613733565b93508360208202850161388a85613744565b8060005b858110156138c657848403895281516138a78582613842565b94506138b283613856565b925060208a0199505060018101905061388e565b50829750879550505050505092915050565b600060208201905081810360008301526138f28184613863565b905092915050565b600080fd5b7f4e487b7100000000000000000000000000000000000000000000000000000000600052604160045260246000fd5b613937826133e9565b810181811067ffffffffffffffff82111715613956576139556138ff565b5b80604052505050565b60006139696132cb565b9050613975828261392e565b919050565b600067ffffffffffffffff821115613995576139946138ff565b5b602082029050602081019050919050565b600080fd5b60006139be6139b98461397a565b61395f565b905080838252602082019050602084028301858111156139e1576139e06139a6565b5b835b81811015613a0a57806139f68882613476565b8452602084019350506020810190506139e3565b5050509392505050565b600082601f830112613a2957613a286138fa565b5b8135613a398482602086016139ab565b91505092915050565b600060208284031215613a5857613a576132d5565b5b600082013567ffffffffffffffff811115613a7657613a756132da565b5b613a8284828501613a14565b91505092915050565b613a9481613455565b82525050565b6000602082019050613aaf6000830184613a8b565b92915050565b613abe81613364565b8114613ac957600080fd5b50565b600081359050613adb81613ab5565b92915050565b60008060408385031215613af857613af76132d5565b5b6000613b068582860161352b565b9250506020613b1785828601613acc565b9150509250929050565b600080fd5b600067ffffffffffffffff821115613b4157613b406138ff565b5b613b4a826133e9565b9050602081019050919050565b82818337600083830152505050565b6000613b79613b7484613b26565b61395f565b905082815260208101848484011115613b9557613b94613b21565b5b613ba0848285613b57565b509392505050565b600082601f830112613bbd57613bbc6138fa565b5b8135613bcd848260208601613b66565b91505092915050565b60008060408385031215613bed57613bec6132d5565b5b6000613bfb8582860161352b565b925050602083013567ffffffffffffffff811115613c1c57613c1b6132da565b5b613c2885828601613ba8565b9150509250929050565b60008060008060808587031215613c4c57613c4b6132d5565b5b6000613c5a87828801613476565b9450506020613c6b87828801613476565b935050604085013567ffffffffffffffff811115613c8c57613c8b6132da565b5b613c9887828801613ba8565b925050606085013567ffffffffffffffff811115613cb957613cb86132da565b5b613cc587828801613ba8565b91505092959194509250565b600067ffffffffffffffff821115613cec57613ceb6138ff565b5b613cf5826133e9565b9050602081019050919050565b6000613d15613d1084613cd1565b61395f565b905082815260208101848484011115613d3157613d30613b21565b5b613d3c848285613b57565b509392505050565b600082601f830112613d5957613d586138fa565b5b8135613d69848260208601613d02565b91505092915050565b60008060008060808587031215613d8c57613d8b6132d5565b5b6000613d9a8782880161352b565b9450506020613dab8782880161352b565b9350506040613dbc87828801613476565b925050606085013567ffffffffffffffff811115613ddd57613ddc6132da565b5b613de987828801613d44565b91505092959194509250565b60008060408385031215613e0c57613e0b6132d5565b5b6000613e1a8582860161352b565b9250506020613e2b8582860161352b565b9150509250929050565b600080600080600060a08688031215613e5157613e506132d5565b5b600086013567ffffffffffffffff811115613e6f57613e6e6132da565b5b613e7b88828901613ba8565b955050602086013567ffffffffffffffff811115613e9c57613e9b6132da565b5b613ea888828901613ba8565b945050604086013567ffffffffffffffff811115613ec957613ec86132da565b5b613ed588828901613ba8565b9350506060613ee68882890161352b565b925050608086013567ffffffffffffffff811115613f0757613f066132da565b5b613f1388828901613ba8565b9150509295509295909350565b60008060008060808587031215613f3a57613f396132d5565b5b600085013567ffffffffffffffff811115613f5857613f576132da565b5b613f6487828801613ba8565b9450506020613f7587828801613476565b935050604085013567ffffffffffffffff811115613f9657613f956132da565b5b613fa287828801613ba8565b925050606085013567ffffffffffffffff811115613fc357613fc26132da565b5b613fcf87828801613ba8565b91505092959194509250565b7f4e487b7100000000000000000000000000000000000000000000000000000000600052602260045260246000fd5b6000600282049050600182168061402257607f821691505b6020821081141561403657614035613fdb565b5b50919050565b7f4552433732313a20617070726f76616c20746f2063757272656e74206f776e6560008201527f7200000000000000000000000000000000000000000000000000000000000000602082015250565b60006140986021836133a5565b91506140a38261403c565b604082019050919050565b600060208201905081810360008301526140c78161408b565b9050919050565b7f4552433732313a20617070726f76652063616c6c6572206973206e6f7420746f60008201527f6b656e206f776e6572206f7220617070726f76656420666f7220616c6c000000602082015250565b600061412a603d836133a5565b9150614135826140ce565b604082019050919050565b600060208201905081810360008301526141598161411d565b9050919050565b7f4552433732313a2063616c6c6572206973206e6f7420746f6b656e206f776e6560008201527f72206f7220617070726f76656400000000000000000000000000000000000000602082015250565b60006141bc602d836133a5565b91506141c782614160565b604082019050919050565b600060208201905081810360008301526141eb816141af565b9050919050565b7f4e487b7100000000000000000000000000000000000000000000000000000000600052601160045260246000fd5b600061422c82613455565b915061423783613455565b9250827fffffffffffffffffffffffffffffffffffffffffffffffffffffffffffffffff0382111561426c5761426b6141f2565b5b828201905092915050565b600061428282613455565b91507fffffffffffffffffffffffffffffffffffffffffffffffffffffffffffffffff8214156142b5576142b46141f2565b5b600182019050919050565b7f4e487b7100000000000000000000000000000000000000000000000000000000600052603260045260246000fd5b7f4552433732313a20696e76616c696420746f6b656e2049440000000000000000600082015250565b60006143256018836133a5565b9150614330826142ef565b602082019050919050565b6000602082019050818103600083015261435481614318565b9050919050565b7f4552433732313a2061646472657373207a65726f206973206e6f74206120766160008201527f6c6964206f776e65720000000000000000000000000000000000000000000000602082015250565b60006143b76029836133a5565b91506143c28261435b565b604082019050919050565b600060208201905081810360008301526143e6816143aa565b9050919050565b7f55736572204e6f7420466f756e64000000000000000000000000000000000000600082015250565b6000614423600e836133a5565b915061442e826143ed565b602082019050919050565b6000602082019050818103600083015261445281614416565b9050919050565b600081905092915050565b600061446f8261339a565b6144798185614459565b93506144898185602086016133b6565b80840191505092915050565b60006144a18284614464565b915081905092915050565b60008190508160005260206000209050919050565b600081546144ce8161400a565b6144d88186614459565b945060018216600081146144f3576001811461450457614537565b60ff19831686528186019350614537565b61450d856144ac565b60005b8381101561452f57815481890152600182019150602081019050614510565b838801955050505b50505092915050565b600061454c82846144c1565b915081905092915050565b7f50617373776f726420496e636f72726563740000000000000000000000000000600082015250565b600061458d6012836133a5565b915061459882614557565b602082019050919050565b600060208201905081810360008301526145bc81614580565b9050919050565b60006145cf8285614464565b91506145db8284614464565b91508190509392505050565b7f596f75206861766520616c7265616479205369676e5570000000000000000000600082015250565b600061461d6017836133a5565b9150614628826145e7565b602082019050919050565b6000602082019050818103600083015261464c81614610565b9050919050565b7f50726963652043616e2774206265206e65676174697665000000000000000000600082015250565b60006146896017836133a5565b915061469482614653565b602082019050919050565b600060208201905081810360008301526146b88161467c565b9050919050565b7f4552433732313a207472616e736665722066726f6d20696e636f72726563742060008201527f6f776e6572000000000000000000000000000000000000000000000000000000602082015250565b600061471b6025836133a5565b9150614726826146bf565b604082019050919050565b6000602082019050818103600083015261474a8161470e565b9050919050565b7f4552433732313a207472616e7366657220746f20746865207a65726f2061646460008201527f7265737300000000000000000000000000000000000000000000000000000000602082015250565b60006147ad6024836133a5565b91506147b882614751565b604082019050919050565b600060208201905081810360008301526147dc816147a0565b9050919050565b7f4552433732313a20617070726f766520746f2063616c6c657200000000000000600082015250565b60006148196019836133a5565b9150614824826147e3565b602082019050919050565b600060208201905081810360008301526148488161480c565b9050919050565b7f4552433732313a207472616e7366657220746f206e6f6e20455243373231526560008201527f63656976657220696d706c656d656e7465720000000000000000000000000000602082015250565b60006148ab6032836133a5565b91506148b68261484f565b604082019050919050565b600060208201905081810360008301526148da8161489e565b9050919050565b7f45524337323155524953746f726167653a2055524920736574206f66206e6f6e60008201527f6578697374656e7420746f6b656e000000000000000000000000000000000000602082015250565b600061493d602e836133a5565b9150614948826148e1565b604082019050919050565b6000602082019050818103600083015261496c81614930565b9050919050565b600081519050919050565b600082825260208201905092915050565b600061499a82614973565b6149a4818561497e565b93506149b48185602086016133b6565b6149bd816133e9565b840191505092915050565b60006080820190506149dd60008301876134ea565b6149ea60208301866134ea565b6149f76040830185613a8b565b8181036060830152614a09818461498f565b905095945050505050565b600081519050614a238161330b565b92915050565b600060208284031215614a3f57614a3e6132d5565b5b6000614a4d84828501614a14565b91505092915050565b7f4e487b7100000000000000000000000000000000000000000000000000000000600052601260045260246000fd5b7f4552433732313a206d696e7420746f20746865207a65726f2061646472657373600082015250565b6000614abb6020836133a5565b9150614ac682614a85565b602082019050919050565b60006020820190508181036000830152614aea81614aae565b9050919050565b7f4552433732313a20746f6b656e20616c7265616479206d696e74656400000000600082015250565b6000614b27601c836133a5565b9150614b3282614af1565b602082019050919050565b60006020820190508181036000830152614b5681614b1a565b905091905056fea2646970667358221220974eb1c9b382198dadba34b0affddaa1d38b8bf2f885b88d21311c56f9c5256a64736f6c63430008090033",
  "linkReferences": {},
  "deployedLinkReferences": {}
}